:020000041000EA
:1000000000B5324B212058609868022188439860DF
:10001000D860186158612E4B002199600221596106
:100020000121F02299502B49196001219960352056
:1000300000F044F80222904214D00621196600F024
:1000400034F8196E01211966002018661A6600F04E
:100050002CF8196E196E196E052000F02FF8012189
:100060000842F9D1002199601B49196000215960AB
:100070001A491B48016001219960EB211966A021F2
:10008000196600F012F800219960164914480160C1
:100090000121996001BC002800D000471248134993
:1000A000086003C880F30888084703B5996A0420EC
:1000B0000142FBD001200142F8D103BD02B5186610
:1000C0001866FFF7F2FF186E186E02BD00000240BE
:1000D000000000180000070000035F00212200005C
:1000E000F4000018222000A00001001008ED00E03C
:1000F00000000000000000000000000074B24E7A12
:1001000000200420F7010010CB010010CD010010E9
:10011000C9010010C9010010C9010010C901001077
:10012000C9010010C9010010C9010010CF01001061
:10013000C9010010C9010010D1010010D301001045
:10014000C1010010C1010010C1010010C101001067
:10015000C1010010C1010010C1010010C101001057
:10016000C1010010C1010010C1010010C101001047
:10017000C1010010C1010010C1010010C101001037
:10018000C1010010C1010010C1010010C101001027
:10019000C1010010C1010010C1010010C101001017
:1001A000C1010010C1010010C1010010C101001007
:1001B000C1010010C1010010C1010010C1010010F7
:1001C000EFF30580103800BE00BE00BE00BE00BECA
:1001D00000BE00BEF2EB887144A2001064A20010C1
:1001E0003802001090A31AE71E481F49086006C88D
:1001F00081F3088810471D480068002801D019487D
:10020000F3E70DA40ECC002902D000F012F8F9E7B4
:100210001749184A002000E001C19142FCD116495B
:100220008847164988471649884700BEFDE701C937
:1002300001C29A42FBD3704764A20010C0000020A4
:10024000C418002068BA0010000004200000042038
:1002500068BA001000100420001004200000000004
:10026000704700000000000008ED00E0000000D032
:10027000C418002078B200207D58001079150010B5
:1002800075580010F8B5C046044B10B5002B03D0CC
:100290000349044800E000BF10BDC0460000000054
:1002A000C8700020B8990010F0B5DE4657464E469B
:1002B0004546E0B589B00592834A0E261388834CE3
:1002C0000133138004AB9C46342366443370333BC4
:1002D0003200039004910093682120009A4608F0B0
:1002E00049FA04AB9C460F25002365442A00994631
:1002F000009368212000013308F046FA332333705D
:1003000053462F78320000936821200008F032FA1B
:100310004B462A00009368212000013308F034FA8C
:100320002B7832001B023B431BB2984636233370B6
:10033000534668210093200008F01CFA4B462A001F
:10034000009368212000013308F01EFA3523337032
:1003500053462F78320000936821200008F00AFAF3
:100360004B462A00009368212000013308F00CFA64
:100370002B7832001B021F43382333705346682109
:100380000093200008F0F6F94B462A0000936821FC
:100390002000013308F0F8F92B7832009B46372310
:1003A0003370534668210093200008F0E3F94B4670
:1003B000200044462A0000936821013308F0E4F944
:1003C000434B2A7819783FB2481C18704900981C92
:1003D0004452072419780425585F214019700225DA
:1003E000595F120209180625585F09180825585F39
:1003F00009180A25585F09180C25585F09180E2599
:10040000585F09181025585F0918987CC910451CB9
:100410009D741D00400014352F52987C2040987424
:100420001425585F16269D5F401918269D5F4019B8
:100430001A269D5F40191C269D5F40191E269D5F50
:10044000401920269D5F401922269D5F40192425D2
:100450005E5DC010771C5F551F002637BC465F46A7
:100460003A4367467600BA535A5D14405C552825D6
:100470005C5F26255A5F12192A255C5F12192C250C
:100480005C5F12192E255C5F121930255C5F121912
:1004900032255C5F34255B5F1219D3180D4ADB10DF
:1004A0001488091B039C21805188401A04990880F4
:1004B00092889B1A059A138009B0F0BCBB46B246DD
:1004C000A946A046F0BDC0466CB2002068100020CE
:1004D0001872002000680020F0B5DE464E46454602
:1004E0005746E0B589B002AB9C4603920F222D23FC
:1004F0000126594D6244137002912C3B68218046BD
:100500000096280008F036F9002306AC2200682186
:1005100028000093063308F037F92388A08859BAD9
:10052000DBBA9946C3BA9C464C4B67881A7E7DBAA3
:100530009346FFBA44BA002A51D01E787200924600
:100540009A4452460220125E0136934658465A6932
:10055000121A50464A445A61D210418012B2072101
:1005600091463140424619704946342611809A5DC1
:100570009046002A4BD0197F4E009E191E20325EF5
:10058000F5839046072540460131294050251A6BD6
:100590001977121AD2191A63D21017B2029A178059
:1005A0005E5D002E47D038260720995D4D005D190D
:1005B0003A22AF5EDA6C0131D21B6244DA64014048
:1005C000D210995513B29C466C876246039B1A80E1
:1005D00009B0F0BCBB46B246A946A046F0BD0A042D
:1005E00092465046120C02435A609A60DA604A46BC
:1005F000D2005A615A46598019821A7049464246B9
:100600001E76342611809A5D9046002AB3D12904C3
:100610000A0C0A431A625A629A62FA001A63424644
:100620001A770122DD839D8550259A55029A1780FD
:100630005E5D002EB7D121040A0C0A43DA631A6406
:100640005A6448229C526246D200DA6438229E5490
:10065000373A5C875A55B8E768100020501A0020D6
:10066000F0B5DE4657464E464546E0B58DB006AB82
:100670009C4606920F22332301265E4C624413707F
:100680000490059120006821323B009608F072F832
:1006900000230AAD2A00682120000093063308F0E9
:1006A00073F82B886F885BBAAD887FBA9C469CB282
:1006B0001BB26DBA9A463BB299462BB29846B9B274
:1006C0004D4BAAB203910292187E834600285AD05D
:1006D000187846009E1907900220345EA3465846BB
:1006E0005C69241A604670800726079854440130DC
:1006F00006401E7034265C61985DE4108446A4B206
:10070000002854D0197F4E009E198A461E20315E63
:10071000F7838C466046196B0726091A49445046F0
:100720001963C91089B20391502101303040187704
:10073000585C00284DD03820195C4E009E193A2292
:10074000B75E75870725DA6C0131D21B4244DA6443
:100750002940D210195493B20293284A039913885E
:10076000E41A049B1C805388CB1A05990B8093884C
:10077000029AD31A069A13800DB0F0BCBB46B2465B
:10078000A946A046F0BD604658802004204358602A
:100790009860D860604618825046C000586158463C
:1007A0001E7634261870985D84460028AAD1080465
:1007B00001431962596299624946C9001963614649
:1007C0001977012199555021DF839F85585C0028B6
:1007D000B1D116043243DA631A645A6448229D5236
:1007E0004246D200DA6438229854373A5D875A5428
:1007F000B3E7C04668100020A81A00200068002057
:1008000070B50C000A2184B002AE050003AA3000C6
:100810006944FFF761FE6B466846991C01AAFFF721
:100820001FFF6B461B882B806B465B886B806B467B
:100830009B88AB803388238073886380B388A380D0
:1008400004B070BDF0B5DE4657464E464546E0B5AD
:10085000002685B0534D544B03AC23808146884617
:1008600017009A462200022368212800009607F00C
:1008700081FF072323704B46220063706821022307
:100880002800009607F076FF0823237043462200D5
:100890006370682102232800009607F06BFF0A238B
:1008A000677023702200682128000096083B07F03B
:1008B00061FF3E4B2200238068210223280000961E
:1008C00007F058FF7F2322002380984668212800E4
:1008D00000967D3B07F04EFF03239B466B465A462E
:1008E000DA720123083200936A446821280099468D
:1008F00007F040FF2200012368212800009607F03E
:1009000043FF5B462778237020233B43220063701C
:10091000682102232800009607F02CFF052002F032
:1009200047F85B4623701D339F43677022006821A0
:10093000280000961E3B07F01DFF5346220023802F
:10094000682102232800009607F014FF05276B4654
:100950000B22DF724B466A4400936821280007F09F
:1009600009FF2200012368212800009607F00CFFF0
:1009700023782200637027700223682128000096E4
:1009800007F0F8FE434622002380682128000096E5
:100990007D3B07F0EFFE05B0F0BCBB46B246A94672
:1009A000A046F0BD681000207F3000000981FFFFE5
:1009B000F0B5DE4657464E464546E0B5002687B0C0
:1009C000654D664B05AC23809B46220002236821BF
:1009D0002800009607F0CEFE614B2200238068219C
:1009E00002232800009607F0C5FE0423220023807E
:1009F0006821023B2800009607F0BCFE594B2200FC
:100A00002380682102232800009607F0B3FE7F238D
:100A10002200238068217D3B2800009607F0AAFE73
:100A2000032202AB9C460B27924667443A70023A77
:100A3000904601236821009228003A0007F09AFEB0
:100A40000123220068212800009607F09DFE2278ED
:100A500020239146524622704A46134368212200C1
:100A6000637028000223009607F084FE052001F041
:100A70009FFF5246202322704A469A436270022307
:100A8000220068212800009607F074FE3B234246AE
:100A90003B70682100923A3B3A00280007F06AFE5A
:100AA0000123220068212800009607F06DFE2278BD
:100AB0003C23914642463B70682100923B3B3A0002
:100AC000280007F057FE0123220068212800009625
:100AD00007F05AFE2278022303925A4668212280A8
:100AE00028002200009607F045FE05223A70924643
:100AF000424601236821009228003A0007F03AFE9E
:100B00000123220068212800009607F03DFE52468E
:100B10002378682122706370220002232800009647
:100B200007F028FE7F232200238068217D3B2800D8
:100B3000009607F01FFE4B460020482B04D1039877
:100B4000093843425841C0B207B0F0BCBB46B24678
:100B5000A946A046F0BDC046681000207F300000C6
:100B6000038CFFFF0582FFFFF0B5D6464F46464691
:100B7000C0B500267F2784B0464C03AD2F800223EA
:100B80002A0068212000009607F0F4FD424B2A005D
:100B900068212B8020000223009607F0EBFD0A203D
:100BA00001F006FF83235B002B80053B2A006821B0
:100BB00020000096FF3B07F0DDFD384B2A002B801C
:100BC000682102232000009607F0D4FDE023DB001B
:100BD0002B802A00022368212000009607F0CAFD1E
:100BE0002F4B2A002B80682102232000009607F05B
:100BF000C1FD2C4B2A002B80682102232000009687
:100C000007F0B8FD284B2A002B8068210223200022
:100C1000009607F0AFFD02232F802A0068212000F4
:100C2000009607F0A7FD642001F0C2FE00232024F7
:100C3000984699469A46753F6F4402AE2A0039009D
:100C40003000FFF731FB0022B35E013C9A440022E2
:100C5000BB5E0A2099440022AB5EE4B2984401F0E6
:100C6000A7FE002CEAD15346104A5B1113804B4675
:100C70005B11538043465B119380FFF799FE04227A
:100C800031210C20FFF7DEFD04B0E0BCBA46B146CE
:100C9000A846F0BD681000200680FFFF7F200000FE
:100CA0000135000011070000143100000068002029
:100CB000F0B5C64600B5224C84B02249050020009C
:100CC00007F02EFD0321062000F0E6FF0321072098
:100CD00000F0E2FF00220121062000F0F7FF0022D1
:100CE0000121072000F0F2FF0E22012300260F272A
:100CF0006A441670682100936F442000984607F0FC
:100D000039FD01233A0068212000009607F03CFDE0
:100D10003B78EA2B0FD02E70FE220B4B92051A6007
:100D200000230A4A13600A4A13600A4A136004B097
:100D300080BCB846F0BD43462B70FFF715FFEBE7CC
:100D400068100020801A0600F8700020FC70002057
:100D5000007100200471002070B50400016A46682B
:100D60000569C06902F07CFF616A02F079FF2349DE
:100D700002F079FF2249041C301C02F0CDFF00284C
:100D800005D01E49281C02F0BFFF002831D11D49A3
:100D9000281C02F0C1FF002812D08021281CC905A0
:100DA00002F0A4FF00280BD01749301C02F0B4FF5A
:100DB000002805D01549301C02F098FF00281AD1F0
:100DC0001349201C02F0A8FF002810D0FE21281C87
:100DD000890502F099FF002809D00849281C02F073
:100DE0008BFF431E984143420320184000E000203F
:100DF00070BD0120FCE70220FAE7C0460000404039
:100E0000CDCC4C3DCDCC4C3E0AD7233C9A99993E53
:100E100000002041F0B5DE4657464E464546E0B557
:100E200095B00E93229B009002911800049200212D
:100E300030229B4603F020F9209B9A46802352469D
:100E40001B019A4200DD9A46209B002B00DC79E3CF
:100E5000B14B002400269946009B01361859029B8D
:100E6000011C1B599846049B1F5902F010FF414674
:100E7000051C404602F00BFF011C281C02F0F0FE8E
:100E8000391C051C381C02F002FF011C281C02F052
:100E9000E7FE02F0C5FF4B4618510434B245DBDCD7
:100EA0000023002600279846009601974B4601CB69
:100EB000994602F0AFFF04000D0002000B000098FD
:100EC000019902F0F9FB2200009001912B00200013
:100ED000290002F010FC0B0002003900300002F083
:100EE000EBFB01239C46E04406000F00C245DDDC1D
:100EF000504602F063FC02000B000490059100983C
:100F0000019902F0DEFB02F0A5FC049A059B041C8B
:100F10003900300002F0D5FB02F09CFC211C804619
:100F2000201C02F0B4FE011C404602F096FE002197
:100F3000051C02F0DBFE002800D000255B46281CC3
:100F40001C6002F06DFF5B465860404602F068FF8F
:100F50005B4639009860300002F07CFC5B46D8604C
:100F6000209B012B00DCB8E200242198211C02F018
:100F7000C3FE002800D0E0E2674B002499461F0022
:100F80000025002601CF02F045FF02000B002000E3
:100F9000290002F091FB013604000D00B245F1DC9E
:100FA000049A059B02F08DFB02F054FC5B4B574604
:100FB00002931B680024009353469B009846584BAD
:100FC00000250A93434680469A460A9B4146E61806
:100FD0004B46185902F041FE013530600434AF42EF
:100FE000F3DC009BD046BA469F4200D183E2781ED4
:100FF00002F0A8FE002456464A4F3D00B946071CA1
:10100000200002F09FFE484902F041FE391C02F028
:101010002AFE02F00BFF011CFE20800502F01DFEDF
:10102000FC21890502F033FE013401C5A642E7DC4C
:10103000B2464F46029B1E603900002457463B4E85
:101040004246300003F01EF80A9D286802CE02F0E6
:101050001EFE013401C5A742F7DC380002F072FE23
:10106000011C219802F0FFFD0021BA46041C0C90DF
:1010700002F042FE002800D059E2211C2C4802F068
:10108000F2FD02F019FF7C1002F07EFE844200DDCA
:101090000400002C00DC4AE280235B009C4200DD5F
:1010A0001C00631C0D930024002300221293139450
:1010B0001093119401230F920B925A469B46229251
:1010C000584602F07BFB1B4A1B4B02F014FB049AB0
:1010D000059B02F0F6FA04000D0002F0CDFB0600BD
:1010E0000F00200029000696079702F0D7FB3B006F
:1010F0000890099132003000390002F0DDFA0A9BB5
:101100000024994600231E00009301940023270029
:1011100098460290039113E0DC2100208C670020A8
:101120006C9200208C470020DB0FC9406C720020BD
:1011300000002041182D4454FB21194026002F00A7
:101140004B4601CB994602F065FE320004000D00CB
:10115000029803993B0002F0CEFA02000B00200037
:10116000290002F0A9FA009A019B02F0A0FA0123DB
:101170009C46E04404000D0000960197C245DDDC6A
:101180000698079932003B0002F0B5FA02000B0006
:101190002000290002F08BFA320004000D000898AC
:1011A00009993B0002F0A7FA220006000F002B006D
:1011B0002000290002F09FFA320004000D003B00DD
:1011C0003000390002F097FA02000B0020002900DD
:1011D00002F072FA02F03EFB051C584602F0B2FD26
:1011E0000C9902F054FD0B99041C281C02F094FD8C
:1011F000002801D00F940B95FC21201C890502F0DA
:1012000083FD002800D178E1D749201C02F06EFD53
:10121000002800D171E1281C02F0FCFD02000B0047
:101220001098119902F048FA1090119101239C46F0
:101230000D9BE3449B4500D042E7229B00210B9885
:101240009B4602F059FD002801D000230F935B4616
:10125000109811990F9A1A6102F0FCFA5B465861D6
:101260001298139902F0F6FA5B4698610023002663
:10127000002798460E9B00960197994643464A469A
:101280009B00D05802F0C6FD04000D0002000B00C8
:101290000098019902F010FA2200009001912B00B1
:1012A0002000290002F027FA0B000200390030006C
:1012B00002F002FA01239C46E04406000F00C245FA
:1012C000DCDC049A059B0098019902F0FAF902F01F
:1012D000C1FA049A059B041C3900300002F0F1F9B0
:1012E00002F0B8FA211C051C201C02F0D0FC011CE5
:1012F000281C02F0B2FC0021041C02F0F7FC0028BC
:1013000000D00024201C02F08BFD0021041C281CAE
:1013100002F007FD002806D10021281C02F0F4FC91
:10132000002800D117E15B4600260027DC61209BE6
:1013300000960197002B26DD0023A14698464346E0
:101340001E9A9B00D05802F065FD04000D000200BB
:101350000B000098019902F0AFF922000090019172
:101360002B002000290002F0C6F90B000200390012
:10137000300002F0A1F901239C46E04406000F0072
:10138000C245DCDC4C46049A059B0098019902F0AA
:1013900098F902F05FFA049A059B051C39003000A9
:1013A00002F08FF902F056FA291C061C281C02F0E4
:1013B0006EFC011C301C02F050FC0021051C02F0E8
:1013C00095FC002800D00025281C02F029FD0021F2
:1013D000051C301C02F0A5FC002806D10021301CA1
:1013E00002F092FC002800D1B9E05B4600260027FD
:1013F0001D62209B00960197002B28DD0023A94643
:101400009846029443461F9A9B00D05802F002FD72
:1014100004000D0002000B000098019902F04CF945
:101420002200009001912B002000290002F063F9B6
:101430000B0002003900300002F03EF901239C4607
:10144000E04406000F00C245DCDC4D46029C049AD5
:10145000059B0098019902F034F902F0FBF9049A17
:10146000059B80463900300002F02BF902F0F2F9BA
:101470004146061C404602F00AFC011C301C02F0EA
:10148000ECFB0021071C02F031FC002800D00027F3
:10149000381C02F0C5FC0021071C301C02F041FC86
:1014A000002805D10021301C02F02EFC00284ED06F
:1014B0005B462E495F62281C02F0E9FB5B462B4924
:1014C0009862201C02F0E3FB5B46D86215B0F0BCCA
:1014D000BB46B246A946A046F0BD00235A4613615A
:1014E00053619361209B012B00D1BFE600260027AA
:1014F00000960197E5E61E4F9EE51B49201C02F071
:1015000003FC002800D191E61A49201C02F0F4FBEC
:10151000002800D18AE6281C02F07CFC02000B00A7
:101520001298139902F0C8F8129013917EE60023E6
:101530005A4613615361936198E65B461C615C6196
:101540009C6193E60026002700960197D0E4301CAA
:1015500002F066FCACE7281C02F062FCE3E6301CFB
:1015600002F05EFC41E7C046000040406F12833A43
:101570008C47002000002041F0B5DE464546574626
:101580004E46E0B58F4CA725A54404F0EBFAFA20AF
:10159000800001F00DFA8C4B02221B680021986834
:1015A000002307F0E7FB894804F02CFB012300240B
:1015B000FA22039302930193F43364219200FF33E0
:1015C00083480494009404F0A5FB1EAB5B1981488A
:1015D0001C7004F017FB1EAA9446A723634418004E
:1015E000FFF766FB1EAB5B191978012907D07A4813
:1015F00004F090FBFA20800001F0DAF9FAE777486E
:1016000004F000FB0622002148A802F035FD062266
:1016100000214AA8002702F02FFD01F073FAC82329
:10162000B846B946BA46BB463E1C289704000D0092
:101630001F0000236A4AA4185D4180231B06AB42A9
:1016400002D80124674D64422000290001F044F9CA
:101650004AA948A8FFF7D4F8B0221EAB9B18002077
:10166000185E02F06FFBE221890502F010FB011CFD
:10167000301C02F0F5FAB2221EAB9B18061C0020AB
:10168000185E02F05FFBE221890502F000FB011CFD
:10169000289802F0E5FAB4221EAB9B18289000208F
:1016A000185E02F04FFBE221890502F0F0FA011CFE
:1016B000484602F0D5FAA8221EAB9B1881460020AE
:1016C000185E02F03FFB484902F0E1FA011C404677
:1016D00002F0C6FAAA221EAB9B1880460020185EB4
:1016E00002F030FB404902F0D2FA011C504602F0F1
:1016F000B7FAAC221EAB9B1882460020185E02F09F
:1017000021FB394902F0C3FA011C584602F0A8FA3D
:10171000013F8346002F8CD1289B3449071C301C85
:1017200054469A4602F09FFA30493790504602F0EC
:101730009AFA2E493890484602F095FA2B4939908A
:10174000404602F090FA29493A90201C02F08BFAA8
:1017500026493B90381C02F086FA4090244804F059
:1017600051FA01F0CFF904000D0001F0CBF9002986
:1017700000D120E1FA220023920001F09BFD43906A
:1017800001F0C0F934903591349A359B3E923F93E5
:1017900000239B4698461F00164B4593164B2A93F1
:1017A000164B2B93164B9A46164B9946164B2C9379
:1017B000164B2D93164B4293164B44934B46D146F2
:1017C0009A465CE03CF5FFFF78100020B8990010C5
:1017D000DC990010449A0010589A00108C9A00105E
:1017E00010270000FFFFFF7F90C1F93C0000484335
:1017F000A09A00102C9B0010DC4100206C430020BC
:10180000FC4400200868002098690020286B002014
:10181000609B0010CC9B0010FA220023920001F084
:1018200049FD34902A9A2E99BB00D1502B9A3099B9
:101830000137D1504A4631994046D15052463299EB
:10184000D1502C9A3399D1502D9A3699D1503B00D2
:10185000643B5A1E93415B421F4043466322002172
:10186000DB0F82424B41984401239C464346E344AC
:10187000642B00D1A5E0289A299B3492359300234C
:10188000E64AA4185D4180231B06AB4202D801241E
:10189000E34D64422000290001F01EF84AA948A83F
:1018A000FEF7AEFFB0221EAB9B180020185E02F0C0
:1018B00049FAE221890502F0EAF9379902F0CDF9F7
:1018C000B2221EAB9B182E900020185E02F03AFA4E
:1018D000E221890502F0DBF9389902F0BEF9B42261
:1018E0001EAB9B1830900020185E02F02BFAE2210C
:1018F000890502F0CCF9399902F0AFF9A8221EABA4
:101900009B1831900020185E02F01CFAC54902F0C5
:10191000BEF93A9902F0A1F9AA221EAB9B183290A7
:101920000020185E02F00EFABE4902F0B0F93B99B1
:1019300002F093F9AC221EAB9B1833900020185E86
:1019400002F000FAB74902F0A2F9409902F085F9D5
:10195000369001F0D7F8349A359B28902991289831
:101960002999801A994103000B4319D002F048FAD3
:10197000011CAD4802F077F9AC49349002F06DF9E2
:101980004000AA49400802F06EF9A9493C9002F0D3
:10199000C3F9002804D03F9B299A934200D851E113
:1019A00001F0B0F8002900D036E7FA21890001F0F3
:1019B00043FC349036E7FA21890001F03DFC439066
:1019C000DEE65B46312B00DC55E73B003A0058A9C8
:1019D0009000632A02DD1000643880002A9E0132E4
:1019E000305801C1BCA88842F2D13A00BCA990008D
:1019F000632A02DD1000643880002B9E01323058CB
:101A000001C1FFA884308842F1D13C943D953A0051
:101A10004D46FFA984319000632A02DD100064382E
:101A2000800028581EAC01C1B320A446C000604409
:101A300001328842EFD11EA9B3228C46D200624403
:101A4000A9463C9C3D9D11003C943D953A0055466D
:101A50009000632A02DD10006438800028581EAC14
:101A600001C1E520A446C000604401328842EFD1A4
:101A70001EA9E5228C46D200624411003A00AA4613
:101A80003C9C3D9D9000632A02DD1000643880007C
:101A90002C9E013230581EAEB44601C165486044E8
:101AA0008842EFD11EA98C46624A63486244604472
:101AB0009900632B02DD1900643989002D9E0133E2
:101AC000715802C28242F3D101F01CF84CAB04936E
:101AD000564B1EAA0393642394460293554BFFAAC8
:101AE00063440193E523DB0063440093B323DB00ED
:101AF000634484323C903D9158A8BCA9FFF78AF911
:101B00004CA8FFF729F9419000F0FCFF3C9A3D9B5F
:101B1000801A994102F074F9484902F0A4F883460A
:101B200002F078F93C903D912E9802F073F9349BC5
:101B30002E902F91439957985E1A002326933C9A32
:101B40003D9B24922593419B229302F063F92090C0
:101B50002191569802F05EF91E901F91559802F05F
:101B600059F91C901D91549802F054F91A901B9148
:101B7000539802F04FF918901991529802F04AF9CF
:101B800016901791519802F045F9149015915098BC
:101B900002F040F9129013914F9802F03BF9109027
:101BA00011914E9802F036F90E900F914D9802F077
:101BB00031F90C900D914C9802F02CF90A900B9190
:101BC000369802F027F908900991339802F022F92B
:101BD00006900791329802F01DF904900591319812
:101BE00002F018F902900391309802F013F92E9A3E
:101BF0002F9B009001913100429804F08BF85846D9
:101C00000F4902F089F8002804D03C9A3D9B449883
:101C100004F080F800239B462DE6C0461027000004
:101C2000FFFFFF7F90C1F93C002474490000C842C7
:101C3000CDCC4C3DB8080000480A000000007A44B2
:101C40000000A0411E00289A299B9E4203D13E9984
:101C5000914200D9A4E63C980D4902F018F802F030
:101C6000D9F864233C903D913498029302F0D2F865
:101C70003C9A3D9B00900191459804F04BF82898C0
:101C800029990023034A801859413E903F9187E6E5
:101C90000000C84240420F00094A83009A1810B55C
:101CA00014684022544080322240064CC000A446B2
:101CB00063441A60044B9C466044416010BDC046BA
:101CC00004C0014004D0014000400140074B8000A7
:101CD000C3181B68C90092000A435A400C231340E2
:101CE000034A9446604403607047C04604C0014004
:101CF00004D001408023DB051868000F7047C04600
:101D00000FB400B5084883B003F07CFF049B002BA0
:101D100007D005A91800019103F048FD034803F01E
:101D200071FF012003F05AFDF89B0010C89B0010C2
:101D300070B5EFF3108C72B60D4D2B68002BFCD0F4
:101D4000BFF35F8F0724CB08C618C05C01230C408B
:101D5000A3401C000440034207D118433070BFF376
:101D60005F8F2C608CF3108870BD1000FFF7C8FFE8
:101D70002C0100D0F8B54746CE46884680B5EFF333
:101D8000108C72B6214D2C68002CFCD0BFF35F8FF5
:101D90009A422CD8D4080727055D0619012417405C
:101DA000BC402C421FD007210127894609E0D408F6
:101DB000055D06194C4639001440A1400C0029422B
:101DC00011D001329342F2D201204042BFF35F8F23
:101DD00000220E4B1A608CF3108800280FDBC0BC69
:101DE000B946B046F8BD254310003570EEE7BFF3A5
:101DF0005F8F00232B608CF3108801204042434604
:101E0000002BECD00898FFF77BFFC0462C0100D0D8
:101E1000044A1078431CDBB2172B00D9102313702F
:101E20007047C046A80F002010B5064B064C82B084
:101E30000100009318221F232000FFF79BFF02B030
:101E400010BDC046089C0010986700200021044B7C
:101E5000044ABFF35F8F02C39342FAD17047C04672
:101E6000000100D0800100D0054B064A1360064AED
:101E7000136053609360D360136153619361704743
:101E80008080808000E400E004E400E01F2318402C
:101E90001E3B8340002905D0C021044A490053500D
:101EA00013607047802201498B50FAE700E100E09F
:101EB00001228240034B1B6813405A1E9341D8B243
:101EC0007047C04600E100E001238340014A1360EF
:101ED0007047C04600E200E0064B10309B6880006F
:101EE000C358054A00209B1A2F229A424041C0B293
:101EF0007047C04600ED00E0AC0F002070B50D004B
:101F0000EFF3108672B60F4A1368002BFCD0BFF3B4
:101F10005F8F0D4B10309B6884001B590B4A934216
:101F200003D09D4201D001F02DF8074B9B681D5155
:101F3000BFF35F8FBFF35F8F0022024B1A6086F3FF
:101F4000108870BD240100D000ED00E0C101001038
:101F5000F0B54E464546DE465746E0B583B006002E
:101F600000919046EFF3108B72B6654A1368002B10
:101F7000FCD0BFF35F8F0025624B5D579A46002D62
:101F800000DA79E052466B005F4C5F19BF000193A5
:101F9000E31999469B79103613705C4BB6009B6829
:101FA00099590B1B2F2B33D9594B994200D07CE008
:101FB000019B02379C46574B6544AD006353564B1B
:101FC000E719043BDB1B554A1B055B0D65191343E1
:101FD0006B80534B0121AB80FF23AB714346EB7108
:101FE000009BAB604B460B431900484B9B689951D3
:101FF000BFF35F8FBFF35F8F0022414B1A608BF3FB
:10200000108803B0F0BCBB46B246A946A046F0BD5E
:1020100001200A008243D379434549D9BC4647464B
:10202000884607E05800C01880002018C179B942DE
:1020300028D902000623D356002BF3DA9A46131D43
:102040009C464146B846374F484663460438C01A56
:102050000005324B400D1843019B908095715A1931
:1020600053469200A418A37143462F4AE371009B84
:102070002260A780A360B8E700F084FF00255346E4
:102080005D577FE79A464146131DB84667469C4612
:102090009088043740050015E7196044C01BE0270D
:1020A0000005400D3F020743CEE700F06BFF7FE7DE
:1020B00013001E491B1B5B415943090D154BBD1CE9
:1020C000E353154B6519043B5B1B1B05134D5B0D5F
:1020D0002B43AC464D466B8065460437131FE7190A
:1020E000DB1B1B055B0D1D434B4699714146D971A6
:1020F00000999D80996049460B4B0143136074E73A
:10210000240100D072B20020AC0F002000ED00E0EE
:10211000C101001000A1FFFFDC0F002000E0FFFF65
:1021200001BDFFFF01BD000001488047AAAA0000D1
:1021300070B501240443EFF30581EFF3108C72B600
:10214000214A1368002BFCD0BFF35F8F1F4B0500A3
:102150001F4AED1A6D416A43120D1E4D8900AE688B
:1021600052B27658A6421CD00621595691421CD034
:1021700012215956914222D01E215956914220D007
:102180002A2159560324914210D0134B19781A7002
:102190008171BFF35F8F00220B4B1A608CF31088A4
:1021A00070BDAB680D4C5C50EFE70024610009196D
:1021B00089005B18FF21997109499980E5E701249D
:1021C000F4E70224F2E7C046240100D0AC0F00205F
:1021D000AAAA000000ED00E072B20020C1010010C8
:1021E00001BDFFFF10B5084B084C82B00100009301
:1021F000002205232000FFF7BDFD002801DB1F237F
:10220000181A02B010BDC046249C001076B20020FF
:10221000024B9C46614489000160704740000034D5
:10222000F0B5FF23C646144D144F2C00984600B558
:10223000BD420DD31DE0FFF7EBFD01002800FFF7C5
:10224000E7FF4346B380BFF35F8FBC4211D2250046
:10225000236826000834002BEDD1FFF7D9FD0100DB
:102260002800FFF7D5FF43463371BFF35F8FBC42B1
:10227000EDD380BCB846F0BDBC180020C4180020C7
:1022800010B50400FFF7C4FD01002000FFF7C0FFF8
:10229000FF232371BFF35F8F10BDC04610B504004C
:1022A0000120FFF7C1FD034BC3189B002360BFF360
:1022B0005F8F10BD40000034034B9C466144890091
:1022C0000160BFF35F8F7047400000340A4B19680C
:1022D000EFF3108072B60A68002AFCD0BFF35F8F5C
:1022E0001B68BFF35F8F00221A6080F3108840BF25
:1022F000002000217047C04614720020F0B5DE4671
:1023000057464E464546E0B585B0EFF305820323B8
:102310001340B54A9900575801229A40884693467F
:10232000B24B1A60B24B02935B46B2484363082338
:10233000FE5E002E35DABB881BB2002B00DBA8E066
:10234000BB79002B00D0E9E00823F85E00281EDBF3
:1023500043007A691B18DB00D3189D68DC686B1C8E
:1023600000D108E1A34801004144826A0B69AE1A1A
:102370009B1A9E4213D35A46036A1A420FD09D48B5
:1023800000F0B8FB8C4202DCCED18542CCD940BFF4
:1023900005B0F0BCBB46B246A946A046F0BD0D61F3
:1023A000EDE77A69730091469B19DB0099444B462F
:1023B0009C68DD6800F09EFB8D42BCDC00D1FCE037
:1023C000002D00DAE1E04A464B4652691B6992460D
:1023D000029A934200D1D2E04A460821785E5288A0
:1023E0000004514610439847009001910099019ACA
:1023F0000B001000134300D1C7E013000A000028AF
:1024000000DBDEE020002900801A99414B469860ED
:10241000D96000229A5E002A00DA8CE753009C18EB
:102420007D69E4002C190093A368E4689A468C4205
:1024300000DD80E702D1834200D97CE708239C4677
:10244000BC443A8103976746009BB4463E000EE0C9
:102450008C4200D1C3E01E000023F25E002A0BDB99
:1024600053009C18E4002C19A768E468BA469B182E
:10247000DB00EB188C42EBDD330066469C464B4696
:102480001A806346039F1E80BB881BB2002B00DAB4
:1024900056E73A69EFF3108172B61368002BFCD04F
:1024A000BFF35F8F0123BE885B42BB8036B23B69BE
:1024B000BFF35F8F00221A6081F31088002E00DACC
:1024C0003EE73B0008333A0099467D6973009B194B
:1024D000DB00EB189968DC688C460820115E4846E2
:1024E000002910DB009306E0A34240D00023F95EF0
:1024F0003800002906DB4F007F18FF00EF19FB684A
:10250000A342F1DD009B068000201E5E1980002E94
:10251000DCDA1700BB79002B00D115E70023BB7173
:102520003D000823F95E08354B1C00D12FE77C697C
:102530000800A44603E035004B1C00D106E74B0021
:102540005B180A006146DB00CE18C95E73881BB2B7
:10255000002BF0DA01235B42DC17B360F4608242A7
:10256000EAD029803B89100033803A81E4E7BB68D8
:102570006345BBD9C6E7631C00D0F3E6FFE65346CC
:1025800050461B699847002823D14B461B883A695F
:102590003B81EFF3108372B611680029FCD0BFF3C2
:1025A0005F8F49467A880A803A697E80BFF35F8FE1
:1025B0000021116083F31088BDE6844200D8FFE655
:1025C000B9E60C4800F096FA009B019CC0186141E6
:1025D0001CE753461A685B680092019306E7824540
:1025E00000D838E748E7C046E87000203C70054056
:1025F000FD2200100040054070B52E4C2569002DCD
:1026000004D00A212C48FFF703FE70BD2B4E032196
:10261000300000F065FAE660FFF7FAFB284B032272
:102620009C46D02322701B061B6801216370254B3A
:102630006044A3600F2380002061022063806369EF
:102640004942A18019800231198647311D835852B1
:1026500018315A5275325C399952183201319952F7
:102660001832013199521832013199520835183215
:102670009D52023118329952183201319952183252
:10268000013199521832013199521832013199525F
:102690001832013199520C4B0C49DC600130356223
:1026A000FFF72CFC01210320FFF7F0FB084B1D6016
:1026B000A7E7C046F40F0020147200200040054038
:1026C00040000034FFFF1000E8700020FD220010E1
:1026D0003860054000487047F40F0020F8B51F002F
:1026E00008AB1B7804001600002B08D100F00AFA92
:1026F00032003B00121A8B41002B00DA53E02269B2
:10270000EFF3108072B61368002BFCD0BFF35F8F1D
:102710000223E15E63694A005218D2009B18002927
:1027200037DB1A8862802269BFF35F8F002515604E
:1027300080F31088069A9E60DF601A61079A5A61DA
:102740005A8801325204520C101C002A1FD082B247
:102750005880080410432669EFF3108772B6326878
:10276000002AFCD0BFF35F8FA2881A80A180236962
:10277000BFF35F8F00221A6087F310880B4923781C
:102780008C4601329A40E36863441A60F8BD012028
:10279000DDE72369BFF35F8F00221A6080F31088A2
:1027A00001204042F2E70020F0E7C0463C20000054
:1027B00070B501000469EFF3108C72B62068002830
:1027C000FCD0BFF35F8F02200D5E4C69680040199A
:1027D000C0002418002D37DB208848800869BFF32B
:1027E0005F8F002606608CF31088E360638804988E
:1027F000013320615B0405985B0CA26060611A1CC8
:10280000002B1FD093B22804628018430A69EFF3AB
:10281000108C72B61368002BFCD0BFF35F8F8B88CF
:1028200023808D800B69BFF35F8F00221A608CF3C9
:1028300010880B7801329A40CB6808498C46634473
:102840001A6070BD0122DDE70B69BFF35F8F0022C4
:102850001A608CF3108801204042F2E73C2000000F
:1028600010B543890A1493421ADD53009B1842693C
:10287000DB00D3180469EFF3108C72B62268002ACB
:10288000FCD0BFF35F8F5A88090494B2090C8A42C6
:1028900008D00369BFF35F8F00221A608CF31088A1
:1028A000002010BD8022120214435C8001230269C3
:1028B0008371BFF35F8F002111608CF3108804498E
:1028C00002788C469340C268012062441360E8E7B6
:1028D0003C20000040787047F0B504000D0006264B
:1028E0007642F717C64636196F4100B582B08F425F
:1028F00014D811D000F006F932003B00121A8B41B7
:10290000002B17DC002B47D02000290000F038F9FD
:1029100002B080BCB846F0BD8642EBD9002200234D
:1029200016001F0000F0EEF832003B00121A8B4137
:10293000002BE7DD00F0E6F832003B00121A8B4175
:10294000002B0ADB00230193154B3200009315483E
:102950003B00FFF72DFF0028D6DB00239C46B04646
:10296000114A124E736A9F4204D8B16A4145CBD2D4
:102970009F42C9D11168EFF3108072B60B68002B2B
:10298000FCD0BFF35F8F1368BFF35F8F61461960A0
:1029900080F3108820BFE5E7002AB5D0CAE7C0461B
:1029A000CD220010F40F00201472002000400540DA
:1029B00070B5060000F0A6F8FA2204000D0000230E
:1029C00030000021920001F02BF9802300196941A9
:1029D0001B06994202D3012002494042FFF77CFFC7
:1029E00070BDC046FFFFFF7FF0B5D6464F46464656
:1029F000C0B504000D0082B0EFF305878946002FB3
:102A00000ED0344900204B6AAB4203D38A6A0130AE
:102A1000A24226D302B0E0BCBA46B146A846F0BDF9
:102A20002D4B9846DB689A46434650461E7800F088
:102A300061F80B00514602000436B60071582000C0
:102A40008E1A2900801A99418F4211DC0ED020BFC6
:102A5000204A0020536A4B45DCD3926A0130A242DF
:102A6000D8D25B1B5A1E9341D8B2D3E78642EED927
:102A700000F048F822002B00121A8B41002B1ADBC1
:102A800000230193154B2200009340462B00FFF7D3
:102A90008FFE011E0FDD0F4B5A6A4A4517D39B6A02
:102AA000A34212D34046FFF7DBFE0A4A0020536AD6
:102AB0004B45AFD3D1E7074A0020536A4B45A9D312
:102AC000926A0120A242A5D2CBE74A45EAD120BFB3
:102AD000E8E7C04600400540F40F0020CD2200107A
:102AE00010B5024A0248FFF723F910BD489C0010B8
:102AF0009C6700200300416A0A00986A596A8A426A
:102B0000FAD17047034B596A0A00986A596A914290
:102B1000FAD170470040054070B504000D00174A17
:102B2000536A1900966A536A8B42FAD13000190031
:102B300024184D41AB4216D813D0104B2A005B6AC3
:102B40009D4203D90D494B6A9342FCD3934207D16E
:102B50000A4A02E0516A994202D1916AA142F9D32C
:102B600070BDA642E9D9054B5B6A1C005A1CEFD028
:102B7000012201246442E5175242E3E70040054088
:102B8000064A536A9942FCD807D1044B02E05A6ABC
:102B9000914202D19A6A8242F9D3704700400540BF
:102BA000F8B5DE464E4657464546E0B58B4605002D
:102BB0000A991800160000F03FFB0A9B6C001F02E8
:102BC000314B64199C46A4006444636881469F426B
:102BD00000D967602B1FDBB29846C02342469B0199
:102BE000E318012A2DD9802212011A60274BAD006B
:102BF00059599A4600291BD17301E0262268534097
:102C00001E40802342465B01E3181E60012A2DD935
:102C1000802380229B01E31812011A6053464A4622
:102C200067605A51F0BCBB46B246A946A046F8BD03
:102C3000586900F001FB013043001B18033BFDD233
:102C4000DAE75A46012ACED102321A60023AA36864
:102C50001A42FCD07301E0262268AD0053401E40AA
:102C600080230A4A5B019246E3181E605A46216897
:102C7000514003220A401A6001225B469A40A36831
:102C80001A42FCD0C4E7C04600800040A067002084
:102C9000F0B546464F46D646C0B51F00334B4400FC
:102CA0009C462418A4006444636888461600FF2BE1
:102CB00002D880235B006360031FDBB29A46C02307
:102CC00052469B01E318012A2DD9802212011A6075
:102CD000274B85005959994600291BD17301E026DD
:102CE000226853401E40802352465B01E3181E6059
:102CF000012A2DD9802380229B01E31812011A603A
:102D000080235B0063604B465F51E0BCBA46B1462E
:102D1000A846F0BD586900F08FFA013043001B1837
:102D2000033BFDD2DAE74246012ACED102321A60D5
:102D3000023AA3681A42FCD07301E026226885009B
:102D400053401E4080230A4A5B019146E3181E60EF
:102D500042462168514003220A401A60012342463C
:102D60009340A2681342FCD0C4E7C04600800040F4
:102D7000A0670020014B8000C0587047A06700206A
:102D8000F8B5040020481D0017000E0000F054FAAA
:102D90000100380000F050FA069B29041B03194378
:102DA0002368002B1EDB194B194DE21853425A4180
:102DB00080235B019C461203164B62441A60164B3B
:102DC0001A6017002B689F43FBD1144B2660E21852
:102DD0002123A06013602368002BFCDA0823E16044
:102DE0001360F8BD3F2322681340B342DBD1A368D0
:102DF0001B051B0D8342D6D1EE22E368D20213409D
:102E00008B42D0D1EDE7C046001BB7000040FDBFAC
:102E100008C0004000E0004000F000400430000026
:102E200010B580241C4BE4051C6000281AD0012337
:102E30001A4C18431A4BDC611A4C44401C6259620C
:102E400098628021144BC90519601748174908601A
:102E5000E021C9041960002A07D18022144B120610
:102E60001A6010BD0E4BD861EBE753019B1A9B0013
:102E70009A18802312015B049A4209D213000D496B
:102E80000B60074B5A608022094BD2051A60E8E7B5
:102E9000094B1A00F3E7C04600B00540D3C007B0A5
:102EA000008005402D3FF84FFCFF01000820014045
:102EB00000A00540C0700020FFFFFF008023024AF1
:102EC0009B000B43D362704700800540142310B56C
:102ED0000100188804331B88984710BD162310B5CD
:102EE0000100188802331B88984710BDF8B5474683
:102EF000CE4680B50F1E19D0142399460433040022
:102F00000025012698464B461888434621681B88B1
:102F1000984701C4431E9841013540420640AF42E4
:102F2000F1D13000C0BCB946B046F8BD0126F8E783
:102F3000142370B50400188804331B880D0005495C
:102F4000984703000020002C01DB0130A04029003D
:102F50009847C04655420000AA23064A1B01136049
:102F60008D235B00D3600449044B19605368002B28
:102F7000FCDA70470040024000B0FA0000600240F6
:102F80007047C04610B50148FEF7BAFE6C9C0010B1
:102F900070B5074D074EB54209D20024013E761B9D
:102FA000B60808CD984723000134B342F9D170BD6B
:102FB00070990010AC990010054B064A06491A603A
:102FC000064A074B1A6010000B689843FBD1704704
:102FD00000E00040BFCDFBFE08C00040FE7F3C008B
:102FE00000F00040044BDB6C002B03D18022034B2C
:102FF000D2021A607047C046000011504C20115098
:10300000044A054B1A60054A1368DB018033FBD183
:103010007047C046FFFFFF0100F0004008C00040BD
:103020004022034B9A675A671A67DA667047C046B0
:1030300000F0014010B5FEF709FF10BDF8B52B49AF
:103040002B4C2C4D641AA6103200302E00D93022A1
:103050002800920001F016F8BC2C3ED8731C180012
:103060000127254A302B3BD92F212C196407E40F67
:10307000891B052917D9302B15D8002C33D0B30064
:10308000EA503F1B33199B007908EB18C900C91897
:103090001A605A6008338B42FAD101233B421CD09C
:1030A0009F433E18731CB1006A50302B15D09B0013
:1030B000EA50B31C2E2E10D09B00EA50F31C2D2E8C
:1030C0000BD09B00EA50331D2C2E06D09B00EA50FB
:1030D000731D2B2E01D09B00EA50084B9D60F8BD5C
:1030E0002F37BF1BC0E73000CBE7C0460001001000
:1030F000C001001000000020C101001000ED00E040
:10310000002310B5294C82B0A367FFF725FF0122E9
:10311000274B1A60636C012BFCD10322254B1A60EC
:10312000224A936B012BFCD1013300930121224AE7
:1031300022480433FFF724FE052301210093204A8F
:103140002048FFF71DFE0022022104201E4BFFF73E
:103150009FFD0022012105201C4BFFF799FD002255
:10316000002107201A4BFFF793FD002200210820C1
:10317000174BFFF78DFD8023DB0000930022002119
:103180000920134BFFF70CFD0022104B00210620F5
:10319000FFF77EFD0420FFF7EDFD0E4900F04CF82F
:1031A00001000020FFF78AFE02B010BD0080004041
:1031B0003CB0004030B00040002F68590080024011
:1031C000008C864700C00240001BB70040597307BF
:1031D000006CDC0240420F0001480421014B1847FB
:1031E00010100020ED2E0010124A936F9B0815D28C
:1031F0009066D166002905D0FFE7FFE7FFE7516F32
:10320000106F704704B580210906C217514000288D
:1032100000D0C84306F06CFB002104BDF0B5146E6D
:10322000556E576F166FFFF7E3FF146655665767C5
:103230001667F0BD000000D0114A936F9B0813D2AF
:1032400010665166002905D0FFE7FFE7FFE7516FE1
:10325000106F704704B5002801D00020C04306F06D
:1032600047FB002104BDC046F0B5146E556E576F84
:10327000166FFFF7E5FF1466556657671667F0BDD2
:10328000000000D094464A4A926F9208624601D2EA
:1032900028E0C046F0B5464E346E756E776F366FD7
:1032A00000F020F89446424A146655665767166740
:1032B0006246F0BD94463E4A926F9208624601D241
:1032C00054E0C046F0B53A4E346E756E776F366F87
:1032D00000F04CF89446364A1466556657671667F0
:1032E0006246F0BD002B24DB11D000293EDA00B588
:1032F000C943404200D1013100F038F8C94340428F
:1033000000D10131DB43524200D1013300BD002A1C
:10331000EBD1002801D1002905D00020C90FC90731
:1033200001D1C043410800B506F0DAFA00220023BB
:1033300000BD00B500290ADBDB43524200D1013356
:1033400000F014F8C943404200D1013100BDC94327
:10335000404200D10131DB43524200D1013300F041
:1033600005F8DB43524200D1013300BD002923D1CF
:10337000002B18D1002A0CD0BC460D4F38667A6657
:1033800000210023FFE7FFE7FFE77A6F386F67460A
:103390007047002801D00748010000B506F0A0FAE8
:1033A0000022002300BD02000B0000200021704716
:1033B000000000D0FFFFFFFF002B00D0BFE0130C88
:1033C00028D1002AE7D080B4114F39667A66FFE72A
:1033D000FFE730B4040C7B6F396F1B0423433B665B
:1033E0007A66FFE7FFE7FFE7C04684B27B6F3D6F79
:1033F0001B0423433B667A66FFE7FFE7C0460023D2
:103400002C042D0C7A6F386F00196941B0BC7047DD
:10341000000000D0F0B594460025140E01D1120230
:103420000835140F01D112010435940F01D1920017
:103430000235D40F01D152000135D40B0134254F90
:103440007C66254C3C660E0C93B2FFE7FFE7FFE776
:103450003C6F6643360C7703BE467343DF0B5B0459
:10346000C01AB941130C7343DB18C91ACE0866435E
:10347000360CB64493B273431F0F1B01C01AB941F7
:10348000130C73431F0B1B05C01AB941860D8F0225
:103490003E436643360C092D24DB520A7243801AE0
:1034A0007703460A6643360C16235B1BDE40DF407B
:1034B000BF1964466643821B70460435063301001B
:1034C000D940A840C01900D30131A24206D200233E
:1034D000F0BD0000000000D0FFFFFFFF121B013015
:1034E000F3D3F1E709277F1BFE406446A2B2724383
:1034F000801A00D20139220C7243130C1204821A72
:1035000099410B007046043513370100F940A8407B
:10351000801900D30131002B02D1A2420AD2F0BDA2
:10352000013000D30131121BFAD2013BF8D1A24283
:1035300000D2F0BD013000D30131121BF7E7F0B526
:103540001C0C00D080E00CB400251C0A04D11B0226
:10355000160E3343120208351C0B04D11B01160F43
:103560003343120104359C0B04D19B00960F334367
:1035700092000235DC0B02D192185B4101351C0030
:10358000971864410134464F7C66464C3C660E0CED
:10359000FFE7FFE7FFE7C0463C6F6643360C770363
:1035A000BE4697B27743C01B00D20139C01B00D280
:1035B00001399FB27743C91BC91B170C77437E049F
:1035C000FF0B801BB941CE086643360C0C2D33DB54
:1035D000B644120B1F053A431B0B97B27743C01B2F
:1035E00000D201399FB27743C91B170C77433E04C1
:1035F0003F0C801BB941860D8F023E43664329274D
:103600007F1BFE400C3D7746AF40BF1930BCA2B2D5
:10361000ABB272437343801A9941220C7243130C6C
:103620001204801A994102000B000137001BA941C6
:10363000F9D2781E0021F0BD0C277F1BFE40774693
:103640007F0BAF40FF19E0E700245D1C07D0144F4B
:103650007D663966FFE7FFE7FFE7FFE73C6F95B25E
:103660009EB265436643401BB141150C1E0C654379
:10367000664336042F0C3E432D04401BB141994252
:1036800004D202000B0020000021F0BD01D19042C5
:10369000F7D3801A994101349942F2D3F6E700003A
:1036A000000000D0FFFFFFFF48404140484018B4F1
:1036B000134B5B68019308BD18B4114B1B68019351
:1036C00008BD94460F4A926F920805D2624618B41C
:1036D0000B4BDB68019308BD0A4AF0B5146E556EBA
:1036E000576F166F6246FFF7F2FF064A146655667B
:1036F00057671667F0BD18B4014B9B68019308BD6E
:10370000001B0020000000D0FFB550404240504058
:1037100059404B40594000E0FFB5154F4C00640D37
:1037200003D0BC4204D10C0314D80020090D0905B4
:103730005C00640D03D0BC4204D11C030AD80022F3
:103740001B0D1B0501264B4009D44B4003D58B4272
:1037500000D18242FFBD9942FCD19042FFBD0B4394
:10376000DB1803431343F5D0C9434918FFBD0000DC
:10377000FF07000000B5FFF7CFFF804100BDC04646
:1037800000B5FFF7C1FF01D9002000BD012000BD39
:1037900000B5FFF7B9FF804100BD012040054A0098
:1037A000121804D85A00121801D8002070470120BE
:1037B000704700000021002805D17047C11748401C
:1037C000401AFAD0C90713B5064B1B6898470CBCC2
:1037D000441CA2401005120B0349091B090519439B
:1037E000114310BD107100201F04000010B54C00E3
:1037F000620D8023D218DB00D21A5B057E2A10DD11
:103800009E3A13DACC170903490819435242D140B2
:10381000640001341532202A05DAD04008436043A1
:1038200010BD002010BD0846604310BDC80FC01871
:10383000013810BD18B4024B5B6A019308BD00004B
:10384000001B002018B4024B1B6E019308BD000042
:10385000001B002018B4024BDB6F019308BD000071
:10386000001B0020024A034B00B500F0BBF900BD6D
:10387000182D4454FB2119408A0002D3920D092AC5
:1038800004DA18B4044BDB6B019308BD00B5FFF7F5
:10389000E9FF04BC9646F4E7001B00208A0002D32F
:1038A000920D092A04DA18B4044B1B6C019308BD6D
:1038B00000B5FFF7D7FF04BC9646F4E7001B0020D5
:1038C00010B50148FEF71CFA789C0010132370B560
:1038D0001D78012D19D014DD1D48FFF7FFFA0600F1
:1038E0001C48FFF7FBFA1C4C80223100200000F03E
:1038F000C9FB022D06D01948FFF7E8FA184B1860EB
:1039000070BD154C174BA364F5E7174B124C2360A1
:103910006360A360E36023616361A361E361236289
:103920006362A362E36223636363A363E363236469
:103930006364A364E36423656365A365E365236649
:103940006366A366E36623676367A367E367D9E7F4
:103950005344000053460000001B00204C3300007D
:1039600010710020F53B0010C1380010F0B545463D
:103970004E46DE4657461C001300E0B589B004935E
:1039800005944D00129B904664006A0D8146944652
:10399000640D002B02D01A00002313608E4DAC453D
:1039A0006FD0002C6DD06346002B00D174E0020074
:1039B0000B00AC4267D0651E654564DC8022CB0FEE
:1039C0009B460B0352031B0B13431F00059B4E46E4
:1039D0001B031B0B9A464346029353461A4303921A
:1039E000654500D18CE05B46002B00D197E03B00A1
:1039F0003200002756429F4163461D1B002D00DC0C
:103A00009EE00120039B40421911FFF715FC0023A3
:103A10009B461D3381469A46A846079418E032001B
:103A20009A4001923300AB4020000093E117029AC4
:103A3000039B00F0F5F8009E019F5B46A346AB4058
:103A40009B4443465B1B361A8F419846002B26DD6C
:103A500045460C2D00DD0C254B46BC115C435346FE
:103A60005B1B1C412B0001346410203BD7D5202365
:103A700032005B1BDA4013003A00AA401A4301925D
:103A8000D0E70022554B1000190009B0F0BCBB462E
:103A9000B246A946A046F0BD00220023F3E7079CEA
:103AA000029A039BBB426ADD002F4BDB029803990D
:103AB00032003B0092197B418B4219DC16D00299EF
:103AC0008A4255D0059B002B02DA5B465B429B463F
:103AD000129B002B01D05A461A60414A3000121B3B
:103AE0003900FFF7AFFE02000B00CCE78242E6D9B7
:103AF000029A039BB61A9F4101239C46E344E1E7E7
:103B000097422CDD029A039B594692185B4100298B
:103B100048D1B61A9F4101232C009B46D2E7634649
:103B20001D1B002D00DD6CE7029A039BBB42DFDC0E
:103B300048D0029A039BB61A9F4101239B46B5E7E2
:103B400000239B46029A039BB6185F41002F3DDA83
:103B5000B6185F4102235B429C46E344A6E7029B02
:103B6000039CA74201D19E42CCD802000B008AE7F9
:103B7000039A9342A6D15B46DB07A3D5B8E7BB42C5
:103B800001D1B24290D8029A039BB61A9F41BB4220
:103B900014DC10D0029A039BB61A9F4102239C4664
:103BA000E34483E7921BBB411F0001235B421600E5
:103BB0002C009B4686E7029BB342EBD901239C462F
:103BC000E34473E7029BB342B3D991E701235B421D
:103BD0009C46E3446AE7C046FF0700000000F07F10
:103BE0003304000010B5002482B00094FFF7BEFE3D
:103BF00002B010BD07B5604601880A0A0230DF2A0C
:103C0000FAD1C9B2820804D3028840880004104364
:103C100000E00068014A5050039007BD001B0020DF
:103C200051434343C9188C46110C83B24B4310B423
:103C3000040C614392B280B2504362431C041B0CDB
:103C4000001910BC59411304120CC01851416144B1
:103C5000704700004840414048400E4B5B681847A1
:103C60000C4B1B6818470C4A936F9B0802D2094BF8
:103C7000DB681847F0B5146E556E576F166FFFF777
:103C8000F6FF054A1466556657671667F0BD014B87
:103C90009B68184714710020000000D007B5484009
:103CA0004140484001E0C04607B54200120E03D033
:103CB000FF2A03D1420218D8C00DC0054A00120ED7
:103CC00003D0FF2A03D14A020FD8C90DC90501222A
:103CD000414005D4414001D5814207BD884207BD1E
:103CE0000143491801D0C043001807BD00B5FFF7D4
:103CF000DBFF804100BDC04600B5FFF7D5FF01D90D
:103D0000002000BD012000BD00B5FFF7C7FF01D9AD
:103D1000002000BD012000BD00B5FFF7BFFF8041BE
:103D200000BD01231B064200D21804D84A00D21855
:103D300001D80020704701207047491A002807D198
:103D400008467047C10FC90700D54042002817D068
:103D5000F44603B40B4B1B68984706BC81409E3861
:103D60004042803107D20B0607D04900490AC005FE
:103D70001043084360470130F8E7490A8902F5E734
:103D8000704700001071002041000A0E80231B06BE
:103D90007E2A0BDD9E3A0BDAC11740024008184319
:103DA0005242D040490001314843704700207047DB
:103DB000C00FC01801387047C0420DD300B5400095
:103DC0004008002100F00EF8002801D4404200BD58
:103DD0008020000600BD0000014BDB691847000091
:103DE00014710020014B5B6A184700001471002019
:103DF000014B1B6B1847000014710020034A104749
:103E00000029FBD0024B5B6E184700003B3D0010C1
:103E100014710020014BDB6F184700001471002063
:103E2000014B9B6918470000147100204100090EE6
:103E3000862902DA044BDB6B1847044900B500F011
:103E4000FBF802BC8E46F5E714710020DB0FC94079
:103E500010B50148FDF754FFF49B0010132310B573
:103E600010481C78FFF73AF80100012C0AD003DD56
:103E700080220D4800F006F90C48FFF727F80C4B9C
:103E8000186010BD084C5422200000F0FBF82200FE
:103E9000084980322368002B00D121600434944209
:103EA000F8D1E9E753460000147100204C330000BC
:103EB00010710020513E0010420010B5031C040098
:103EC000120E11D07F3A0AD417218A1A002A05DD72
:103ED00001209040002B0ADB4042204010BD002012
:103EE000002BFBDA0348F9E7C30FD807F6E7441EB7
:103EF000E418F1E7000080BFF0B546464F46D646CD
:103F0000C0B5FF26C50DCB0D354088461700041CF3
:103F10001E40002A01D000231360FF2D52D0002E36
:103F200050D0002D55D0201CFF2E4DD03300013B2A
:103F3000B246AB4248DC802212049146E10F640293
:103F4000640A144342464E465202520A1643B14690
:103F5000AB4240D0002954D0534600216442ED1AB0
:103F6000002D5ADD4B460120D9114042FFF764F97C
:103F70001D2300219C462A000C2D00DD0C226646E4
:103F8000631294404343B61A334126004C46914095
:103F900001335B105C435918341BAD1A002DEADC69
:103FA000A14538DC4B46E41AA14541DCE41A023154
:103FB00063004B4502DC16D1CB0714D54B460131CB
:103FC000E41A10E0FF20C005E0BCBA46B146A8469E
:103FD000F0BD0020F8E7B442F6DD7300002922D1DD
:103FE000AA46E41A01314346002B00DA4942002F69
:103FF00000D03960534696212000C91AFFF7F8FE19
:10400000E2E75346ED1A002DACDC0021B442D5DBCB
:104010000121A41BCCE7002CCADA4B46E41809D5D1
:104020004C440239C4E70121AA461C1B4942DAE785
:104030000131BDE70139BBE710B50022FFF75CFF96
:1040400010BDC04610B5040004F0C4FB002804D025
:10405000034B04199C4200D810BD0248FDF750FEE6
:1040600000000420909C001001480421014B1847D7
:1040700020100020ED2E0010014B1B681847000097
:1040800020100020014B5B68184700002010002022
:104090007047C046F8B557464546DE464E46E0B541
:1040A00098460A9B06009A460D9B0F009346150002
:1040B0009B0710D10B9B0C9A93420CD213005C46C9
:1040C0000B9A9D1A5D44220043460134390020209A
:1040D000B047A542F7D10B9C6319002C09D01D00F5
:1040E00053462A1B013C185D39004346B047002C5B
:1040F000F6D10D9B9B070ED55B46EC1A0C9BA34299
:1041000009D999462A004346390020200134B04796
:104110000135A145F6D82800F0BCBB46B246A946F9
:10412000A046F8BDF0B54F464646D646C0B584B069
:1041300098460EAB1B7894469946129B0D9C109F97
:10414000119E9A0724D4002E6AD1BC4220D20122AB
:104150001A409246202C00D1D2E00C9A551E3022F3
:1041600001E0202C30D001342A55A742F9D852461C
:10417000002A0DD0B4420BD20C9A551E3022202CAE
:1041800002D126E0202C63D001342A55B442F9D163
:10419000DA0634D55A0564D4002C5ED10F9A102A61
:1041A00000D197E0022A00D1A8E030220C9C2270B6
:1041B00001244A46002A5ED15A0700D483E02B220C
:1041C0000C9D2A5501341CE05246002A02D0202EB4
:1041D0003ED92024DA0614D55A0512D4202F00D156
:1041E000A1E0202E3DD120261F2234000F9D102D4E
:1041F00000D18BE0022D52D030250C9FBD54202CD5
:10420000D7D103930C9B62460093029643460194D8
:10421000FFF740FF04B0E0BCBA46B146A846F0BD87
:10422000012215001D40AA461A4229D04A46002AFA
:1042300039D10C321A4236D1BC429BD2202C00D04C
:104240008BE710221A40202EC3D8002AA2D1D8E72B
:104250002024DA06D5D55A0503D4A74225D0B44286
:1042600023D00F9A102A25D0022A14D0202CC8D08F
:1042700022000134C0E72D220C9D2A550134C0E7ED
:10428000BC4200D384E7202C00D066E710221A40FD
:10429000002AE0D1B5E7202CB3D0220001346225FA
:1042A0000C9FBD54E2E7013EC6E7621E012C00D11F
:1042B00074E79BE79A0616D4202CA2D078220C9D96
:1042C0002A550134D2E71A079BD520220C9D2A5586
:1042D000013496E79A060FD478220C9C2270302283
:1042E0006270022465E7202C00D18AE758250C9AD9
:1042F000121915700134B9E75822EEE76222ECE793
:10430000102255461A40002D9FD1C1E7023C9D0660
:1043100004D478250C9F3D551400A9E758250C9F1F
:104320003D551400A4E71F2260E7C04610B50028E1
:1043300000D110BD01F01AFCFBE7C0460B0010B520
:10434000002802D049681B68984710BDF0B5574651
:104350004E464546DE46E0B599B0824689469046CF
:104360000893229A239B10001900FFF716FA0028E1
:1043700000D0CDE0229823990122D94B5242FFF779
:1043800007FA002800D0C3E0229823990122D54BD8
:104390005242FFF7EFF9002800D0B9E022982399A4
:1043A00000220023FFF7E6F9002800D0F1E1229E69
:1043B000239F8023269ADB001A400D92269A1A42E8
:1043C00001D1062324938023269A1B011A403B0027
:1043D00093460996334300D0B3E0002A00D0C2E1EF
:1043E000002300240A930B94002304250993259BA2
:1043F0000024AB4200D95C1B0223269A1A400C927F
:10440000269A134203D06B426B415B421C40099BCE
:10441000002B07D00A9A0B9B30003900FFF751F9A7
:1044200006000F002298239900220023FFF7A2F92B
:10443000002803D0802109067B181F00269AAA4B6A
:10444000009601971340089E0493249B03940293C3
:10445000424633004946504600F0AAF90400002DB8
:1044600067D02020269A4946024013005A42534101
:104470005B42621C18400A92330022004530D0474C
:10448000099A6F1ED317D4185C40D30F9B460025A2
:1044900001E0202D13D008AA94461F232000634476
:1044A0000A2101355E19FEF7C7FE30313170200058
:1044B0000A21FEF7C1FE26000400092EE9D80523D3
:1044C0000693002304930A3303935B46089E0293EA
:1044D00010AB0A9A00934946330050460597019560
:1044E000FFF720FE0C9A0400002A22D04246851ACB
:1044F000259AAA421DD9B0465746160022004346C7
:10450000494620200135B8470134AE42F6D810E0C4
:10451000269B42460493259B49460393249B504681
:104520000293229B239C00930194089B00F040F986
:104530000400200019B0F0BCBB46B246A946A04614
:10454000F0BD6A4B78009C46400D6044FFF736F999
:10455000674A684BFFF7CFF8674A684BFFF7ACF83C
:10456000674A3B031B0B1A4304000D000998110016
:10457000644B0022FFF79BF8634A644BFFF7BBF8DC
:1045800002000B0020002900FFF796F8FFF72EF934
:104590000990FFF713F95E4A5E4B04000D00FFF728
:1045A000AAF800225C4BFFF787F8FFF71FF95B4A78
:1045B0005B4B29000C902000FFF79DF804000C983D
:1045C0000D00FFF7FBF8574A574BFFF794F802002E
:1045D0000B0020002900FFF76AF804000D0002001C
:1045E0000B000A940B95FFF786F804000D000A985B
:1045F0000B9902000B00FFF75FF800220E900F915D
:104600004A4B20002900FFF75CF80022484BFFF7D7
:1046100053F802000B0020002900FFF752F8002297
:10462000444BFFF749F802000B0020002900FFF778
:1046300048F80A9A0B9B0D0080210400C905002050
:10464000FFF735F802000B0020002900FFF734F8CF
:1046500002000B000E980F99FFF733F80022284B49
:10466000FFF72AF8344B0C9C9C4664442305002237
:10467000FFF741F804000D0002000B003000390084
:104680000A940B95FFF776F800285DD123002A00E5
:10469000C625099963318D42AD4159466D420435B5
:1046A000002900D1A3E6134363D030003900234A28
:1046B000234BFFF765F8002807D0002230003900AF
:1046C000204BFFF757F8002853D1249B002B00D133
:1046D0008DE60D9B5A1E9341249AD31A249386E6A5
:1046E000FFFFEF7FFFFFEFFFFFF7FFFF01FCFFFF83
:1046F000FB799F501344D33FB3C8608B288AC63FD1
:104700000000F03F0000F83F61436F63A787D23F8E
:1047100071A379094F930A400000E03F1655B5BBDD
:10472000B16B0240EF39FAFE422EE63F00002C400A
:104730000000244000001840FF0300002D431CEB44
:10474000E2361A3F80842E41099B0022013B0993E7
:104750002000164B2900FEF7B4FF0A0001000300F9
:104760000A910B9294E7002300240A930B940023F0
:104770000993249A099B9A4214DDD31A013B24938E
:104780008023269ADB001A430023002526920993F2
:104790002DE6802212069446229B1E00239B634432
:1047A0001F0006E600232493EAE7C04600002440E9
:1047B000F0B54546DE464E465746E0B595B08B46C9
:1047C000904699461E9A1F9B0A9019001000209D42
:1047D000FEF7E3FF002800D0B0E11E981F990122E8
:1047E000C74B5242FEF7C6FF002800D037E11E98A3
:1047F0001F990122C34B5242FEF7CAFF002800D086
:10480000A7E01E981F990022BF4BFEF7C1FF0028AA
:1048100000D088E01E981F990022BC4BFEF7AAFF2B
:10482000002800D07FE01E981F9900220023FEF789
:10483000A1FF002800D0FAE000230B938023229CE4
:10484000229ADB001C401A4200D102E1092D00D857
:104850007EE106A98C462C00172200233021093C5A
:1048600062440133D154EF1A202B00D132E1A3422C
:10487000F7D10022A44B069207931E981F99FEF7CA
:10488000B5FF0500FEF79AFF02000B001E981F9966
:10489000FEF70DFF069A079BFEF72DFF0890099182
:1048A000FEF7C8FF0600FEF785FF02000B00089820
:1048B0000999FEF7FCFE0022954B08900991FEF73E
:1048C00067FF002800D1D2E001363000FEF772FF0A
:1048D000069A079BFEF754FF002801D000260135F9
:1048E000AA46002F00D098E02800FEF767FF0200DC
:1048F0000B001E981F99FEF7DAFE854B002206007A
:104900000F00FEF737FF0CAB9A46002845D1002276
:10491000300039007E4BFEF73BFF00283DD1EB070E
:104920003BD5013539E0229B42460493219B5946F1
:1049300003930A981E9B1F9C0295009301944B467B
:10494000FFF704FD15B0F0BCBB46B246A946A04631
:10495000F0BD229B5B0767D403226E4B2299019224
:10496000039121990291009342464B4659460A9879
:10497000FFF790FBE6E706AA944617232800634456
:104980000A2101341E19FEF72FFC30312800317046
:104990000A21FEF729FC051E76D0202CEBD103233B
:1049A000229A1340012B1DD1219B002B1AD00B9B67
:1049B000002B00D0BBE0229A0C33134200D0B6E0AB
:1049C000219BA34200D887E006AB9C4617223023E8
:1049D000624404E02199013413558C4259D0202CB3
:1049E000F8D12024229B01940393219B02935346E8
:1049F000B9E706AA944617230A216344300001341C
:104A00001D19FEF719FC3031297030000A21013FD1
:104A1000FEF712FC092E46D90600202CE9D1554696
:104A20000CAB20249A46B8E704223B4B96E71E9A2B
:104A30001F9B00200021FEF73AFE01230B938023E9
:104A4000229C229ADB001E901F911C401A4200D02B
:104A5000FCE60022314B0627069207930DE7229BC6
:104A60000393219B0293042301932D4B7BE70022A8
:104A700008980999264BFEF77DFE002800D02FE705
:104A8000002E4FD101362BE70323229A1340012B2E
:104A900068D0202CA6D00B9B002B1FD02D23524674
:104AA000135501349EE75546202CB9D030223B19CE
:104AB000002F4BD0172006A9013409180A55202CC5
:104AC000AED09C42F6D10CAA92462E2251465C1CD6
:104AD000CA5462E72024CCE6202C83D0229B5B07BB
:104AE00008D4229B1B0700D47CE720235246135591
:104AF000013477E72B2352461355013472E7C04641
:104B0000FFFFEFFFFFFFEF7F65CDCD4165CDCDC14D
:104B10000000E03F409D0010389D001080842E4131
:104B2000489D0010F30700D4DAE60136D8E6219B51
:104B3000013B2193A34200D946E7AAE7229B0393B6
:104B4000219B029303230193084B0CE72300BAE750
:104B5000074BEA009B185C681B682F0006930794BC
:104B600000248AE6219B002B93D020E7449D00106F
:104B7000F09E0010F0B54546DE4657464E46E0B57D
:104B8000A1B01D002A9B90460B93D04AD04B834680
:104B90008A461A60002900D1A4E1002328789946AA
:104BA000002800D1A6E1CB4B5E460993CA4B4C4688
:104BB000D34647460D930AE0631C984622003B000B
:104BC0005946B04744462878002800D1CDE0013549
:104BD0002528F1D108239A46043B9946023B984682
:104BE000013B00229C460C942878691C0300203B62
:104BF000DBB2102B03D8099C9B00E3589F460300AF
:104C0000303B0C9C0A92092B7FD9002398462A2816
:104C100000D1C1E000239A462E2800D190E0030085
:104C2000683BDBB2122B1ED8AC4A9B00D3589F4680
:104C300063460D001A43D7E743460D001A43D3E7F6
:104C40004B460D001A43CFE710230D001A43CBE764
:104C500053460D001A43C7E780235B000A9A687821
:104C60001A430A9201310D0067280AD82428A3D9D3
:104C70000300253BDBB2422B9ED80D9A9B00D358F4
:104C80009F4601006939C9B20F2995D801238B408D
:104C90009C46934B994663464A4613400C936246A2
:104CA0004B461A4200D05EE20A2900D124E10729CE
:104CB00082D10B9B02CB9846002900D19BE1212099
:104CC0000A9A0243914610AB9C461F220F2340468E
:104CD00062440B959C46A04615000C9B0A9002E08E
:104CE000202B0CD0110064460C4020003730092CDA
:104CF00000D807380133E8540A090F29F0D80C937B
:104D00000A9B44460B9D984685E1002398460A9BE2
:104D100045469C4600E00131AB005B195B001D1865
:104D20000878303D0300303B092BF4D963460A93E1
:104D30000023A8469A460D0001312E2800D06EE7C8
:104D400080200A9AC00002430A92302252429446BE
:104D500068780B0084446246092A00D82EE12A288C
:104D600000D13DE10D00013159E7DA46A146B346D5
:104D7000B846C84503D801235B424344994643469D
:104D80004A4651460020D847200021B0F0BCBB461F
:104D9000B246A946A046F0BD0B9B04CB9046002A24
:104DA00004DB68780B930D00013133E70A9A283849
:104DB00002430A9242465242687890460D000B9395
:104DC000013127E7672800D1C7E1472800D114E265
:104DD000452800D116E20A9A0721049242460B9B0D
:104DE0000392073352468B43190002920CC93000DC
:104DF000009201930B9122003B005946FFF7A6FA5F
:104E00000400E0E680239B0028E76878682800D14A
:104E10001BE280230A9A01311A430A9223E7687839
:104E20006C2800D109E280230A9A5B001A430A9297
:104E3000013118E7462800D18AE10A9A0721049235
:104E400042460B9B0392073352468B431900029252
:104E50000CC93000009201930B9122003B0059468F
:104E6000FFF7A6FC0400AEE6631C984622003B0058
:104E700059462520B0474446A5E60B9B04330C93C6
:104E8000631C99460A9B9A0700D4E7E10B9B22001A
:104E9000187859463B00B04743464444012B00D89C
:104EA000B8E22B00B84625005F464C4699462200E2
:104EB0004346013439002020B047AC42F7D12C00E2
:104EC000BB464D4647460C9B0B937CE6754B00104A
:104ED000BC700020509D0010E09D0010949D0010BB
:104EE00041900000DC4B28789B460023994600281F
:104EF00000D058E600243CE70B9B02CB12930B78C2
:104F00009C4618005346002B00D09CE0002812D08D
:104F100002235B420133994689444A460B00894685
:104F2000110001E08B4203D05A780133002AF9D1F5
:104F300049465B1A0C938023DB0099460A9A13407A
:104F40000B934B461A4204D00C9B534501D9534650
:104F50000C93022399460A9A13400A934B46134234
:104F600000D1B5E16346002B00D197E10B9B002BEC
:104F700000D14CE1D1460B1B9A462B00A1444D4673
:104F80002200B9465F469B4609E04B463900541C57
:104F9000B0475346185D002800D158E122009542E1
:104FA000F3D15B46BB464F46A9461D004C460A9BC3
:104FB000002B00D072E1129B0B9304E655460A9A2F
:104FC000A9004919490001330D181878303D010036
:104FD00030390929F4D9AA460A921D00591C1EE647
:104FE0000B9BA87804CB0235D143C9170A409246DF
:104FF0000B93691C13E60A9B10211A008A431000C8
:1050000011310843814680201A00C000024011007F
:10501000034200D157E64B460822069353460592B9
:1050200008320392002204930C9B0292019318AB66
:105030002200009359463B003000FFF773F84346C7
:1050400004000B93BFE5002800D174E75346013BF1
:1050500060E7622800D1DFE1582800D1ECE10A992D
:1050600080230A00DB001A4010000A00194200D118
:10507000BDE111239A430C920C9A802311009B00EE
:1050800019408C461A4200D046E1802311005B0093
:10509000194089460B9904310A911A4200D08FE2D7
:1050A00013005B0600D59EE113001B0600D426E327
:1050B0000B9B00229B5ED9175A184A4092B2D90F17
:1050C0000B91002B00D177E2100010AA94464246C3
:1050D0001F23129252466344AA4614944D4604007C
:1050E000B946B0461F00139201E0202D0FD02000DA
:1050F0000A21FEF7A1F801357E1930313170200008
:105100000A21FEF799F826000400092EEDD8129B1B
:1051100046469846139B4F46A94655469A46149CC8
:105120000C9B069343460593534604930A2303932B
:105130000B9B02934B46019318AB220000935946F8
:105140003B003000FEF7EEFF0A9B04000B933AE5AC
:1051500020230A9A1A430A926FE680230A9A1B01B7
:105160001A430A9237E6782800D0AFE10A988023E4
:105170000200DB001A4011000200184200D1D0E208
:105180000D239A43100003330A93802302009B00EF
:105190001A409446184200D0ACE1802302005B0024
:1051A0001A4091460B9A04320C92184200D04AE2FF
:1051B000430600D493E20B9B1B780893002B00D08E
:1051C0004BE110339843002900D146E10023994672
:1051D00043460593534604930A9B0690039300238A
:1051E00002934B46019318AB2200009359463B00B3
:1051F0003000FEF797FF040065E680230A9A1B0142
:105200001A430A9220230A9A1A430A92E3E50B1BD7
:105210009A460C9B99462B005D469B4622003B001C
:105220002900B04753460134185D0028F6D14B469B
:105230000C935B46AB461D00B9E6C0239B000A9A5F
:10524000A8781A430A92E91C0DE5C023F7E75D46EA
:10525000BB464F46ABE6C046914000104346012B8B
:1052600000D8D1E0631E4344B9461D005F46A24604
:105270008B4622004B46013439002020B047AC4217
:10528000F7D15D46BB464F46A14654460B9B4A4666
:10529000187859463B004444B04714E60C9BA1469D
:1052A000984500D887E64444E41A2B00B846250008
:1052B0005F464C469946220043460134390020207F
:1052C000B047AC42F7D12C00BB464D46474672E68C
:1052D0000C98804500D81CE243461A19131A9946C7
:1052E0002B004D46B9465F469B460C9122004B462B
:1052F000013439002020B047AC42F7D143460C9925
:1053000001330C930B785D469C46BB464F46604686
:10531000002800D02AE64EE607220B9B0733934372
:10532000013294469C4462460B920CCBD90F0A91F1
:10533000110019435FD0D9171191109151400E916E
:10534000119959400F910E980F99109A119B801A3C
:1053500099410E900F9110AA002394464246994617
:10536000129252461F336344B046AA464E461494E6
:10537000B9460E9C0F9D1F00139201E0202E10D005
:10538000200029000A220023FDF794FF0136303265
:105390002B00BA550D0022000400002BEED1092A83
:1053A000ECD8129B4F46B14646469846139B0E9446
:1053B0000F9555469A46149C0C9B069343460593BD
:1053C000534604930A2303930A9B02934B4601938B
:1053D00018AB2200009359463B003000FEF7A2FEB6
:1053E0000400FFF7F0FB0B9B1B781A0067E6102305
:1053F0009A430C9240E6002399460028DCD1002213
:1054000000230E920F93A6E70B9B220018785946B3
:105410003B00B0474C4656E50A9880230200DB006B
:105420001A401100184200D15FE102000D239A4397
:105430000B3B10000A93A8E60A9880230200DB00C9
:105440001A4011000200184200D166E10D2320200D
:105450009A43033310430A9397E66123820600D5EB
:105460004123DBB20A3B0B93434610A91F228C4613
:10547000129353466244AA46149415974C468046AC
:10548000B14617000A9E089D139308E03033DBB243
:1054900001343B55B5420ED3202C0CD00500310011
:1054A0002800FDF7C9FECBB20929EFD90B9A944623
:1054B0006344DBB2ECE7129B40469846139B4E4692
:1054C0005546A1469A46149C159F81E66F2800D048
:1054D00037E10A990C230A009A43802310000A003E
:1054E000DB001A4011000A9A1A4200D021E1082379
:1054F0000A934AE60B9AFA3BFF3B07329A43013381
:105500009C46944463460B93136852680893134374
:1055100012921A1E05D10023103299469043002999
:1055200041D16122810600D54122D2B20A3A0C92C1
:105530004246002310A9139252468C469946149273
:105540001F330A9A6344AA46159417964C46904610
:10555000B946089E1F00129D16900AE03032D2B262
:10556000002301343A55AB4211D0202C11D0060053
:105570000D004246002330002900FDF79BFED2B209
:10558000092AEBD90C9B9C466244D2B2E8E7B045AD
:10559000EBD9139B55469846149B4F469A46A14615
:1055A0001698179E159C43460593534604930A9BF1
:1055B00006900393002308E7002800D0B0E584E5B7
:1055C0000B9B1B68DA0F1100002B00D194E0DA1757
:1055D0009818504010AA914642461F2312925246F4
:1055E0004B44A046AA4614970400B14665461F00E6
:1055F0000B91139201E0202D0FD020000A21FDF71E
:105600001BFE01357E193031317020000A21FDF773
:1056100013FE26000400092EEDD8129B444698463E
:105620000B9BAC461900139B55464E469A46149F59
:105630000C9B0291069343460593534604930A2319
:105640000393634677E50B9B1B680893002B03D1FC
:1056500010339843002937D16123820600D54123B6
:10566000DBB20A3B0B93434610A989461F221293D3
:1056700053464A44AA46B146149415976446804658
:105680001700089D0A9E139308E03033DBB2013403
:105690003B55B5420ED3202C0CD00500310028001C
:1056A000FDF7CAFDCBB20929EFD90B9A94466344A2
:1056B000DBB2ECE7129B40469846139B55464E469C
:1056C0009A46A446159F149C43460593534604935B
:1056D0000A9B0690039300230293634682E5030628
:1056E00013D50B9B1B88089368E502000C239A4393
:1056F0000A3B10000A9348E5002899D16AE70B9B02
:105700001B68D9175A184A40D9E40B9B1B680893A9
:1057100054E5030001330C93F9E520230A9A1A4358
:105720000A920C230A9A00219A43043310000A9328
:105730002BE50A9B0C9308230A930D230C9898439E
:1057400023E510230A9A9A430C9269280AD10A99F0
:1057500080230A00DB001A4010000A00194200D121
:105760008AE486E40A991C230A009A4380231000E5
:105770000A00DB001A4011000A9A1A4202D10A23D9
:105780000A9302E50A230A93D7E7C04600B585B01D
:105790000391012102900093034813004A4202A999
:1057A000FFF7E8F905B000BD3D43001010B5094A08
:1057B0000300146884B0002C08D001220091064830
:1057C000524203A9A047012004B010BD00F01AFA0C
:1057D0000020F9E7BC7000202D43001000BEFDE75B
:1057E000094A03001068002805D00849C3188B42F5
:1057F00007D81360704706480449C31810608B42ED
:10580000F7D901204042F5E7B86C002000000420E1
:1058100078B20020030010B508001100002B05D15C
:10582000044B1A685B6800F043F910BD0120404248
:10583000FBE7C046409C00100300013B10B5080088
:105840001400012B06D801230022210000F0B0F83B
:10585000200010BD01204042FBE7C046012040422D
:105860007047C046012040427047C0460120404278
:105870007047C04610B5FFF7B1FFC04670B5FDF7E1
:1058800087FB074D074EB54209D20024013E761B27
:10589000B60808CD984723000134B342F9D170BD52
:1058A000AC990010B8990010030010B50800110061
:1058B0001B68984710BDC046F0B5C64600B5437D8D
:1058C00007000D001600002B38D0002A2EDD002125
:1058D0006A1E90466A5C037D4C1C00200A2A0CD08C
:1058E000A64216D043461B5D21000D3B5A42534150
:1058F0006A5CDBB24C1C0A2AF2D1002BF0D1814247
:1059000017DC022110483B689847A64207D02000C8
:10591000E8E7864203DD311A3B6828189847AD193D
:10592000013D2B780D3B5A4253413B7580BCB84634
:10593000F0BD091A3B6828189847E2E70368110090
:1059400028009847F2E7C046409F0010F0B5C646D1
:105950000B6806000C0000B5802B06D05A1C226094
:10596000E418267180BCB846F0BD0F4B1D68002DB1
:1059700016D00B1D98460D4F02E02D69002D0FD05B
:105980002B68002BF9D03B68002B01D0AB42F4D13F
:10599000280041462268FFF78FFF2D69002DEFD1C7
:1059A00001220023DBE7C046F0670020FC670020EF
:1059B000F0B5DE4657464E464546E0B585B0170081
:1059C0001C0006000D00FDF79DF80023314A121857
:1059D0004B41802109068B4202D301222E4B5242B9
:1059E0002E4908008A4603F0A3FF01906B1C03D1E7
:1059F000300003F08FFA0500002C26D0284B984683
:105A0000284B1C68002C15D0002F21D1264F02E016
:105A10002469002C0ED02368002BF9D03B68002BA2
:105A200001D0A342F4D120002A003100C0472469EC
:105A3000002CF0D1019B002B28D1280005B0F0BC30
:105A4000BB46B246A946A046F0BD184B9846D7E7DC
:105A5000154B994602ABDF1D0A239B4602E02469E1
:105A6000002CE7D02368002BF9D04B461B68002B95
:105A700001D0A342F3D12A0031002000C0475B4689
:105A80000122390020003B70C047E8E7504603F090
:105A900017FFD2E740420F00FFFFFF7FBC18002036
:105AA000B9580010F0670020FC670020A9580010CA
:105AB000F8B557464E464546DE4698461A4BE0B581
:105AC0009B461A4B07000E0091469A46184D5B46BE
:105AD0001C68002C03D115E02469002C12D02B681F
